{
  "_format": "hh-sol-artifact-1",
  "contractName": "Pepasur",
  "sourceName": "contracts/Pepasur.sol",
  "abi": [
    {
      "inputs": [],
      "stateMutability": "nonpayable",
      "type": "constructor"
    },
    {
      "inputs": [],
      "name": "AlreadyInitialized",
      "type": "error"
    },
    {
      "inputs": [],
      "name": "ECDSAInvalidSignature",
      "type": "error"
    },
    {
      "inputs": [
        {
          "internalType": "uint256",
          "name": "length",
          "type": "uint256"
        }
      ],
      "name": "ECDSAInvalidSignatureLength",
      "type": "error"
    },
    {
      "inputs": [
        {
          "internalType": "bytes32",
          "name": "s",
          "type": "bytes32"
        }
      ],
      "name": "ECDSAInvalidSignatureS",
      "type": "error"
    },
    {
      "inputs": [
        {
          "internalType": "uint64",
          "name": "gameId",
          "type": "uint64"
        }
      ],
      "name": "GameAlreadySettled",
      "type": "error"
    },
    {
      "inputs": [
        {
          "internalType": "uint64",
          "name": "gameId",
          "type": "uint64"
        }
      ],
      "name": "GameAlreadyStarted",
      "type": "error"
    },
    {
      "inputs": [
        {
          "internalType": "uint64",
          "name": "gameId",
          "type": "uint64"
        }
      ],
      "name": "GameNotFound",
      "type": "error"
    },
    {
      "inputs": [
        {
          "internalType": "uint64",
          "name": "gameId",
          "type": "uint64"
        }
      ],
      "name": "GameNotInLobby",
      "type": "error"
    },
    {
      "inputs": [
        {
          "internalType": "uint64",
          "name": "gameId",
          "type": "uint64"
        }
      ],
      "name": "GameNotInProgress",
      "type": "error"
    },
    {
      "inputs": [
        {
          "internalType": "uint256",
          "name": "provided",
          "type": "uint256"
        },
        {
          "internalType": "uint256",
          "name": "required",
          "type": "uint256"
        }
      ],
      "name": "InsufficientPayment",
      "type": "error"
    },
    {
      "inputs": [],
      "name": "InvalidAddress",
      "type": "error"
    },
    {
      "inputs": [
        {
          "internalType": "uint16",
          "name": "provided",
          "type": "uint16"
        }
      ],
      "name": "InvalidHouseCut",
      "type": "error"
    },
    {
      "inputs": [
        {
          "internalType": "uint8",
          "name": "provided",
          "type": "uint8"
        }
      ],
      "name": "InvalidMinPlayers",
      "type": "error"
    },
    {
      "inputs": [],
      "name": "InvalidSignature",
      "type": "error"
    },
    {
      "inputs": [
        {
          "internalType": "uint256",
          "name": "provided",
          "type": "uint256"
        },
        {
          "internalType": "uint256",
          "name": "required",
          "type": "uint256"
        }
      ],
      "name": "InvalidStakeAmount",
      "type": "error"
    },
    {
      "inputs": [
        {
          "internalType": "uint8",
          "name": "current",
          "type": "uint8"
        },
        {
          "internalType": "uint8",
          "name": "required",
          "type": "uint8"
        }
      ],
      "name": "MinPlayersNotMet",
      "type": "error"
    },
    {
      "inputs": [
        {
          "internalType": "address",
          "name": "player",
          "type": "address"
        }
      ],
      "name": "NoPendingWithdrawal",
      "type": "error"
    },
    {
      "inputs": [
        {
          "internalType": "address",
          "name": "caller",
          "type": "address"
        }
      ],
      "name": "NotAuthorized",
      "type": "error"
    },
    {
      "inputs": [
        {
          "internalType": "uint256",
          "name": "totalPayouts",
          "type": "uint256"
        },
        {
          "internalType": "uint256",
          "name": "expectedAmount",
          "type": "uint256"
        }
      ],
      "name": "PayoutMismatch",
      "type": "error"
    },
    {
      "inputs": [],
      "name": "ReentrancyGuardReentrantCall",
      "type": "error"
    },
    {
      "inputs": [
        {
          "internalType": "uint256",
          "name": "winnersLength",
          "type": "uint256"
        },
        {
          "internalType": "uint256",
          "name": "payoutsLength",
          "type": "uint256"
        }
      ],
      "name": "WinnerCountMismatch",
      "type": "error"
    },
    {
      "anonymous": false,
      "inputs": [
        {
          "indexed": true,
          "internalType": "address",
          "name": "oldRecipient",
          "type": "address"
        },
        {
          "indexed": true,
          "internalType": "address",
          "name": "newRecipient",
          "type": "address"
        }
      ],
      "name": "FeeRecipientUpdated",
      "type": "event"
    },
    {
      "anonymous": false,
      "inputs": [
        {
          "indexed": true,
          "internalType": "uint64",
          "name": "gameId",
          "type": "uint64"
        },
        {
          "indexed": false,
          "internalType": "address[]",
          "name": "refundedPlayers",
          "type": "address[]"
        }
      ],
      "name": "GameCancelled",
      "type": "event"
    },
    {
      "anonymous": false,
      "inputs": [
        {
          "indexed": true,
          "internalType": "uint64",
          "name": "gameId",
          "type": "uint64"
        },
        {
          "indexed": true,
          "internalType": "address",
          "name": "creator",
          "type": "address"
        },
        {
          "indexed": false,
          "internalType": "uint256",
          "name": "stake",
          "type": "uint256"
        },
        {
          "indexed": false,
          "internalType": "uint8",
          "name": "minPlayers",
          "type": "uint8"
        }
      ],
      "name": "GameCreated",
      "type": "event"
    },
    {
      "anonymous": false,
      "inputs": [
        {
          "indexed": true,
          "internalType": "uint64",
          "name": "gameId",
          "type": "uint64"
        },
        {
          "indexed": false,
          "internalType": "address[]",
          "name": "winners",
          "type": "address[]"
        },
        {
          "indexed": false,
          "internalType": "uint256[]",
          "name": "payouts",
          "type": "uint256[]"
        },
        {
          "indexed": false,
          "internalType": "uint256",
          "name": "houseFee",
          "type": "uint256"
        }
      ],
      "name": "GameSettled",
      "type": "event"
    },
    {
      "anonymous": false,
      "inputs": [
        {
          "indexed": true,
          "internalType": "uint64",
          "name": "gameId",
          "type": "uint64"
        },
        {
          "indexed": false,
          "internalType": "uint256",
          "name": "playerCount",
          "type": "uint256"
        }
      ],
      "name": "GameStarted",
      "type": "event"
    },
    {
      "anonymous": false,
      "inputs": [
        {
          "indexed": false,
          "internalType": "uint16",
          "name": "oldCut",
          "type": "uint16"
        },
        {
          "indexed": false,
          "internalType": "uint16",
          "name": "newCut",
          "type": "uint16"
        }
      ],
      "name": "HouseCutUpdated",
      "type": "event"
    },
    {
      "anonymous": false,
      "inputs": [
        {
          "indexed": true,
          "internalType": "uint64",
          "name": "gameId",
          "type": "uint64"
        },
        {
          "indexed": true,
          "internalType": "address",
          "name": "player",
          "type": "address"
        },
        {
          "indexed": false,
          "internalType": "uint256",
          "name": "deposit",
          "type": "uint256"
        }
      ],
      "name": "PlayerJoined",
      "type": "event"
    },
    {
      "anonymous": false,
      "inputs": [
        {
          "indexed": true,
          "internalType": "address",
          "name": "oldSigner",
          "type": "address"
        },
        {
          "indexed": true,
          "internalType": "address",
          "name": "newSigner",
          "type": "address"
        }
      ],
      "name": "ServerSignerUpdated",
      "type": "event"
    },
    {
      "anonymous": false,
      "inputs": [
        {
          "indexed": true,
          "internalType": "address",
          "name": "player",
          "type": "address"
        },
        {
          "indexed": false,
          "internalType": "uint256",
          "name": "amount",
          "type": "uint256"
        }
      ],
      "name": "Withdrawn",
      "type": "event"
    },
    {
      "inputs": [],
      "name": "admin",
      "outputs": [
        {
          "internalType": "address",
          "name": "",
          "type": "address"
        }
      ],
      "stateMutability": "view",
      "type": "function"
    },
    {
      "inputs": [
        {
          "internalType": "uint64",
          "name": "gameId",
          "type": "uint64"
        }
      ],
      "name": "cancelGame",
      "outputs": [],
      "stateMutability": "nonpayable",
      "type": "function"
    },
    {
      "inputs": [
        {
          "internalType": "uint64",
          "name": "gameId",
          "type": "uint64"
        },
        {
          "internalType": "address[]",
          "name": "winners",
          "type": "address[]"
        },
        {
          "internalType": "uint256[]",
          "name": "payouts",
          "type": "uint256[]"
        }
      ],
      "name": "constructSettlementMessage",
      "outputs": [
        {
          "internalType": "bytes32",
          "name": "",
          "type": "bytes32"
        }
      ],
      "stateMutability": "pure",
      "type": "function"
    },
    {
      "inputs": [
        {
          "internalType": "uint256",
          "name": "stakeAmount",
          "type": "uint256"
        },
        {
          "internalType": "uint8",
          "name": "minPlayers",
          "type": "uint8"
        }
      ],
      "name": "createGame",
      "outputs": [
        {
          "internalType": "uint64",
          "name": "gameId",
          "type": "uint64"
        }
      ],
      "stateMutability": "nonpayable",
      "type": "function"
    },
    {
      "inputs": [],
      "name": "feeRecipient",
      "outputs": [
        {
          "internalType": "address",
          "name": "",
          "type": "address"
        }
      ],
      "stateMutability": "view",
      "type": "function"
    },
    {
      "inputs": [
        {
          "internalType": "uint64",
          "name": "",
          "type": "uint64"
        }
      ],
      "name": "games",
      "outputs": [
        {
          "internalType": "uint64",
          "name": "id",
          "type": "uint64"
        },
        {
          "internalType": "address",
          "name": "creator",
          "type": "address"
        },
        {
          "internalType": "uint256",
          "name": "stakeAmount",
          "type": "uint256"
        },
        {
          "internalType": "uint8",
          "name": "minPlayers",
          "type": "uint8"
        },
        {
          "internalType": "enum Pepasur.GameStatus",
          "name": "status",
          "type": "uint8"
        },
        {
          "internalType": "uint256",
          "name": "totalPool",
          "type": "uint256"
        },
        {
          "internalType": "uint256",
          "name": "createdAt",
          "type": "uint256"
        }
      ],
      "stateMutability": "view",
      "type": "function"
    },
    {
      "inputs": [],
      "name": "getContractInfo",
      "outputs": [
        {
          "internalType": "address",
          "name": "_admin",
          "type": "address"
        },
        {
          "internalType": "address",
          "name": "_serverSigner",
          "type": "address"
        },
        {
          "internalType": "address",
          "name": "_feeRecipient",
          "type": "address"
        },
        {
          "internalType": "uint16",
          "name": "_houseCutBps",
          "type": "uint16"
        },
        {
          "internalType": "uint64",
          "name": "_nextGameId",
          "type": "uint64"
        }
      ],
      "stateMutability": "view",
      "type": "function"
    },
    {
      "inputs": [
        {
          "internalType": "uint64",
          "name": "gameId",
          "type": "uint64"
        }
      ],
      "name": "getGame",
      "outputs": [
        {
          "components": [
            {
              "internalType": "uint64",
              "name": "id",
              "type": "uint64"
            },
            {
              "internalType": "address",
              "name": "creator",
              "type": "address"
            },
            {
              "internalType": "uint256",
              "name": "stakeAmount",
              "type": "uint256"
            },
            {
              "internalType": "uint8",
              "name": "minPlayers",
              "type": "uint8"
            },
            {
              "internalType": "address[]",
              "name": "players",
              "type": "address[]"
            },
            {
              "internalType": "uint256[]",
              "name": "deposits",
              "type": "uint256[]"
            },
            {
              "internalType": "enum Pepasur.GameStatus",
              "name": "status",
              "type": "uint8"
            },
            {
              "internalType": "uint256",
              "name": "totalPool",
              "type": "uint256"
            },
            {
              "internalType": "uint256",
              "name": "createdAt",
              "type": "uint256"
            }
          ],
          "internalType": "struct Pepasur.Game",
          "name": "game",
          "type": "tuple"
        }
      ],
      "stateMutability": "view",
      "type": "function"
    },
    {
      "inputs": [
        {
          "internalType": "address",
          "name": "player",
          "type": "address"
        }
      ],
      "name": "getPendingWithdrawal",
      "outputs": [
        {
          "internalType": "uint256",
          "name": "amount",
          "type": "uint256"
        }
      ],
      "stateMutability": "view",
      "type": "function"
    },
    {
      "inputs": [
        {
          "internalType": "uint64",
          "name": "gameId",
          "type": "uint64"
        }
      ],
      "name": "getPlayerCount",
      "outputs": [
        {
          "internalType": "uint256",
          "name": "count",
          "type": "uint256"
        }
      ],
      "stateMutability": "view",
      "type": "function"
    },
    {
      "inputs": [],
      "name": "houseCutBps",
      "outputs": [
        {
          "internalType": "uint16",
          "name": "",
          "type": "uint16"
        }
      ],
      "stateMutability": "view",
      "type": "function"
    },
    {
      "inputs": [
        {
          "internalType": "address",
          "name": "_serverSigner",
          "type": "address"
        },
        {
          "internalType": "address",
          "name": "_feeRecipient",
          "type": "address"
        }
      ],
      "name": "initialize",
      "outputs": [],
      "stateMutability": "nonpayable",
      "type": "function"
    },
    {
      "inputs": [
        {
          "internalType": "uint64",
          "name": "gameId",
          "type": "uint64"
        },
        {
          "internalType": "address",
          "name": "player",
          "type": "address"
        }
      ],
      "name": "isPlayerInGame",
      "outputs": [
        {
          "internalType": "bool",
          "name": "isPlayer",
          "type": "bool"
        }
      ],
      "stateMutability": "view",
      "type": "function"
    },
    {
      "inputs": [
        {
          "internalType": "uint64",
          "name": "gameId",
          "type": "uint64"
        }
      ],
      "name": "joinGame",
      "outputs": [],
      "stateMutability": "payable",
      "type": "function"
    },
    {
      "inputs": [],
      "name": "nextGameId",
      "outputs": [
        {
          "internalType": "uint64",
          "name": "",
          "type": "uint64"
        }
      ],
      "stateMutability": "view",
      "type": "function"
    },
    {
      "inputs": [
        {
          "internalType": "address",
          "name": "",
          "type": "address"
        }
      ],
      "name": "pendingWithdrawals",
      "outputs": [
        {
          "internalType": "uint256",
          "name": "",
          "type": "uint256"
        }
      ],
      "stateMutability": "view",
      "type": "function"
    },
    {
      "inputs": [],
      "name": "serverSigner",
      "outputs": [
        {
          "internalType": "address",
          "name": "",
          "type": "address"
        }
      ],
      "stateMutability": "view",
      "type": "function"
    },
    {
      "inputs": [
        {
          "internalType": "uint64",
          "name": "gameId",
          "type": "uint64"
        },
        {
          "internalType": "address[]",
          "name": "winners",
          "type": "address[]"
        },
        {
          "internalType": "uint256[]",
          "name": "payouts",
          "type": "uint256[]"
        },
        {
          "internalType": "bytes",
          "name": "signature",
          "type": "bytes"
        }
      ],
      "name": "settleGame",
      "outputs": [],
      "stateMutability": "nonpayable",
      "type": "function"
    },
    {
      "inputs": [
        {
          "internalType": "address",
          "name": "newRecipient",
          "type": "address"
        }
      ],
      "name": "updateFeeRecipient",
      "outputs": [],
      "stateMutability": "nonpayable",
      "type": "function"
    },
    {
      "inputs": [
        {
          "internalType": "uint16",
          "name": "newHouseCutBps",
          "type": "uint16"
        }
      ],
      "name": "updateHouseCut",
      "outputs": [],
      "stateMutability": "nonpayable",
      "type": "function"
    },
    {
      "inputs": [
        {
          "internalType": "address",
          "name": "newSigner",
          "type": "address"
        }
      ],
      "name": "updateServerSigner",
      "outputs": [],
      "stateMutability": "nonpayable",
      "type": "function"
    },
    {
      "inputs": [],
      "name": "withdraw",
      "outputs": [],
      "stateMutability": "nonpayable",
      "type": "function"
    }
  ],
  "bytecode": "0x608080604052346100555760016000819055600280546001600160e01b0319163360401b600160401b600160e01b03161790911790556004805461ffff60a01b1916601960a31b179055611667908161005b8239f35b600080fdfe608080604052600436101561001357600080fd5b60003560e01c9081630d53be48146110e95750806331af1908146110c05780633ccfd60b14610fab5780634690484014610f82578063485cc95514610efb5780634904190314610c965780635b97572b14610c3d5780635db896b314610b1057806368c823fc14610aa85780637cc1f86714610a4c5780637ee8b2f8146103eb578063965fdbe7146109a0578063a10c4a651461097b578063b135bbb014610954578063c3e790e7146108e8578063c9227ce814610525578063d3f85843146104ae578063f160d36914610425578063f3f43703146103eb578063f54815b414610358578063f851a4401461032d5763f90c5eea1461011157600080fd5b6020366003190112610328576001600160401b038061012e61123e565b16908160005260019081602052604060002054161561030f578160005280602052604060002090600582019160ff83541661016881611294565b6102f657818101548034036102d85750600381810180549060005b8281106102935750600160401b918281101561027d5780866101a892018355826112f3565b81546001600160a01b0391861b91821b19163390911b1790556004840180549093909283101561027d576101e58360ff95886002960181556112f3565b81929154911b9034821b91600019901b191617905560068401610209348254611321565b9055604051348152877f916869e5c0cee38f8964884719c653bc0659c45eaf73911a0bf3daa44522a87d60203393a3549201541681101561024657005b7f1d746689d52f3266b57616dab896bfe7ca806d9a00c901afa3d269f0ccc67fa39260209260ff19825416179055604051908152a2005b634e487b7160e01b600052604160045260246000fd5b61029d81836112f3565b905490851b1c6001600160a01b031633146102c0576102bb906112e4565b610183565b604051634a0bfec160e01b8152336004820152602490fd5b60449060405190630cf4985560e11b82523460048301526024820152fd5b604051638af2db4b60e01b815260048101859052602490fd5b604051630bba262d60e31b815260048101839052602490fd5b600080fd5b34610328576000366003190112610328576002546040805191901c6001600160a01b03168152602090f35b346103285760203660031901126103285760e06001600160401b038061037c61123e565b1660005260016020526040600020805490600181015460ff60028301541660ff600584015416916007600685015494015494604051968116875260018060a01b039060401c166020870152604086015260608501526103da81611294565b608084015260a083015260c0820152f35b34610328576020366003190112610328576001600160a01b0361040c611254565b1660005260056020526020604060002054604051908152f35b346103285760203660031901126103285761043e611254565b6002546001600160a01b03919060401c821633036102c057811690811561049c57600454826001600160601b0360a01b821617600455167faaebcf1bfa00580e41d966056b48521fa9f202645c86d4ddf28113e617c1b1d3600080a3005b60405163e6c4247b60e01b8152600490fd5b34610328576020366003190112610328576104c7611254565b6002546001600160a01b03919060401c821633036102c057811690811561049c57600354826001600160601b0360a01b821617600355167f8aca81b772b289537bcc2c109e400ab186c91216ba0e41570dd28dfff23dddad600080a3005b346103285760803660031901126103285761053e61123e565b6001600160401b036024358181116103285761055e9036906004016112b4565b929091604435818111610328576105799036906004016112b4565b908260643511610328573660236064350112156103285782606435600401351161032857366024606435600401356064350101116103285782841660005260016020528260406000205416156108ce578284166000526001602052604060002092600160ff6005860154166105ed81611294565b036108b457828703610896578661060c8484899a899a6106899a6114ed565b7f19457468657265756d205369676e6564204d6573736167653a0a333200000000600052601c52610680603c60002061064a6064356004013561136b565b90610658604051928361134a565b6064356004810135808452906024016020840137600060206064356004013584010152611396565b90979197611462565b6003546001600160a01b0396908716908716036108845760009460005b85811061085f575060068101549561ffff60045460a01c16808802908882041488151715610849576127109004968781039081116108495780820361082b57505060005b8281106107df5750851515806107d2575b6107ae575b600501805460ff1916600217905560405160608082528101829052608081019890969091906000905b82821061078b575050505084870360208601528287526001600160fb1b038311610328577fc036b4b547a7dfe67d647c77877e7f7a70654ae81f4a99f32845c48c9b0ed16395602094869460051b8094878b01376040850152169501030190a2005b909192996020806001928461079f8f611280565b168152019b0193920190610729565b8660045416600052600560205260406000206107cb878254611321565b9055610700565b50866004541615156106fb565b6107ea818787611386565b35906107f781858d611386565b35918983168093036103285761082692600052600560205261081f6040600020918254611321565b90556112e4565b6106ea565b6044925060405191633fc884e560e01b835260048301526024820152fd5b634e487b7160e01b600052601160045260246000fd5b9561087961087f91610872898989611386565b3590611321565b966112e4565b6106a6565b604051638baa579f60e01b8152600490fd5b60448784604051916309f5ac5560e11b835260048301526024820152fd5b6040516373886a1560e11b81529085166004820152602490fd5b604051630bba262d60e31b81528385166004820152602490fd5b34610328576020366003190112610328576001600160401b038061090a61123e565b1690816000526001602052604060002054161561093c5760005260016020526020600360406000200154604051908152f35b60249060405190630bba262d60e31b82526004820152fd5b346103285760003660031901126103285760206001600160401b0360025416604051908152f35b3461032857600036600319011261032857602061ffff60045460a01c16604051908152f35b346103285760203660031901126103285760043561ffff808216908183036103285760025460401c6001600160a01b031633036102c0576103e88211610a3357916040917fd9dd7655f1b1cada649341cecefa07f9b78de35bdc78e01a17ed5af1b51c9f1a936004549261ffff60a01b9060a01b1661ffff60a01b1984161760045583519260a01c1682526020820152a1005b6040516308d0093960e41b815260048101839052602490fd5b3461032857600036600319011261032857600254600354600454604080516001600160a01b0385831c8116825293841660208201529282169083015261ffff60a091821c1660608301526001600160401b039092166080820152f35b3461032857606036600319011261032857610ac161123e565b6001600160401b0360243581811161032857610ae19036906004016112b4565b9260443592831161032857602093610b00610b089436906004016112b4565b9390926114ed565b604051908152f35b34610328576040366003190112610328576004356024359060ff82168092036103285760028210610c24578015610c0457600254906001600160401b039283831692848414610849576020946001850116906001600160401b0319161760025582600052600184526040600020805484600160401b600160e01b033360401b169163ffffffff60e01b16171781558260018201556002810160ff19908382825416179055600582019081541690556000600682015560074291015560405191825283820152817f5d97137aea359eefc60d89c4e7b0939b04e39659a8d9c3dddc949e0a152fe20c60403393a3604051908152f35b604051630cf4985560e11b81526000600482015260016024820152604490fd5b6040516313d6250b60e01b815260048101839052602490fd5b3461032857604036600319011261032857610c5661123e565b610c5e61126a565b906001600160401b0380821690816000526001602052604060002054161561093c576020610c8c84846115c1565b6040519015158152f35b34610328576020366003190112610328576001600160401b03610cb761123e565b6000610100604051610cc88161132e565b82815282602082015282604082015282606082015260606080820152606060a08201528260c08201528260e082015201521680600052600190816020526001600160401b03604060002054161561093c5760005280602052604060002060405191610d328361132e565b81546001600160401b0381168452604090811c6001600160a01b03166020850190815282840154828601908152600285015460ff16606087019081529251919491610d8b81610d84816003870161157b565b038261134a565b6080870190815260048301604051948580966020845491828152019360005260206000209060005b8a828210610ee45750505050610dcd9060ff93038761134a565b60a089019586528160058601541693610de585611294565b60c08a01948552600760068701549660e08c0197885201546101008b01526040519860208a526001600160401b038b511660208b015260018060a01b0390511660408a01525160608901525116608087015251610120938460a0880152610140870182518091526020610160890193019060005b818110610ec6575050505194601f198783030160c08801526020808751938481520196019160005b818110610eb157505050509461010091859651610e9d81611294565b60e087015251828601520151908301520390f35b83518852602097880197909301928201610e81565b82516001600160a01b03168552602094850194909201918801610e59565b835487526020909601958a94509283019201610db3565b3461032857604036600319011261032857610f14611254565b610f1c61126a565b6002549091906001600160a01b039060401c811633036102c05760035491818316610f7157811692831561049c571691821561049c576001600160601b0360a01b809216176003556004541617600455600080f35b60405162dc149f60e41b8152600490fd5b34610328576000366003190112610328576004546040516001600160a01b039091168152602090f35b34610328576000366003190112610328576002600054146110ae57600260005533600052600560205260406000205480156110965733600052600560205260006040812055600080808084335af13d15611091573d6110098161136b565b90611017604051928361134a565b8152600060203d92013e5b1561105a576040519081527f7084f5476618d8e60b11ef0d7d3f06914655adb8793e28ff7f018d4c76d505d560203392a26001600055005b60405162461bcd60e51b815260206004820152600f60248201526e151c985b9cd9995c8819985a5b1959608a1b6044820152606490fd5b611022565b60405163041afc4160e11b8152336004820152602490fd5b604051633ee5aeb560e01b8152600490fd5b34610328576000366003190112610328576003546040516001600160a01b039091168152602090f35b346103285760209081600319360112610328576001600160401b03918261110e61123e565b169182600052600193848352604060002054161561122857508160005282815260406000209060058083019060ff82541661114881611294565b61120f5783546001600160a01b03919060401c821633036102c057869060009260039360048589019801995b6111bf575b855460ff19168517865560405187815289907fd487d1837600d9796f3afb77d4162218223f138159c8ae9ebc8f85b378a51dd290806111ba818c018d61157b565b0390a2005b875481101561120a57806111d6611204928c6112f3565b905490871b1c836111e7838c6112f3565b905490891b1c1660005284895261081f6040600020918254611321565b83611174565b611179565b604051638af2db4b60e01b815260048101869052602490fd5b630bba262d60e31b815260048101839052602490fd5b600435906001600160401b038216820361032857565b600435906001600160a01b038216820361032857565b602435906001600160a01b038216820361032857565b35906001600160a01b038216820361032857565b6004111561129e57565b634e487b7160e01b600052602160045260246000fd5b9181601f84011215610328578235916001600160401b038311610328576020808501948460051b01011161032857565b60001981146108495760010190565b805482101561130b5760005260206000200190600090565b634e487b7160e01b600052603260045260246000fd5b9190820180921161084957565b61012081019081106001600160401b0382111761027d57604052565b90601f801991011681019081106001600160401b0382111761027d57604052565b6001600160401b03811161027d57601f01601f191660200190565b919081101561130b5760051b0190565b81519190604183036113c7576113c092506020820151906060604084015193015160001a906113d2565b9192909190565b505060009160029190565b91907f7fffffffffffffffffffffffffffffff5d576e7357a4501ddfe92f46681b20a0841161145657926020929160ff608095604051948552168484015260408301526060820152600092839182805260015afa1561144a5780516001600160a01b0381161561144157918190565b50809160019190565b604051903d90823e3d90fd5b50505060009160039190565b61146b81611294565b80611474575050565b61147d81611294565b600181036114975760405163f645eedf60e01b8152600490fd5b6114a081611294565b600281036114c15760405163fce698f760e01b815260048101839052602490fd5b806114cd600392611294565b146114d55750565b602490604051906335e2f38360e21b82526004820152fd5b9390919260405193602090818601966001600160401b0360c01b9060c01b16875260288601949160005b8281106115545750506001600160fb1b038411915061032890505761154e92849260051b809282370103601f19810183528261134a565b51902090565b909192958280600192838060a01b0361156c8b611280565b16815201970193929101611517565b90815480825260208092019260005281600020916000905b8282106115a1575050505090565b83546001600160a01b031685529384019360019384019390910190611593565b6001600160401b031660005260018060205260406000209160009260038091018054945b8581106115f757505050505050600090565b61160181836112f3565b905490841b1c6001600160a01b039081169085161461162857611623906112e4565b6115e5565b5050505090509056fea26469706673582212205bc832886b25410579720a0b89ef9ca8e3046e8672ce5b6e378356bbd59070cf64736f6c63430008140033",
  "linkReferences": {},
  "deployedLinkReferences": {}
}